{"abi":[{"type":"function","name":"uniswapV2Call","inputs":[{"name":"sender","type":"address","internalType":"address"},{"name":"amount0","type":"uint256","internalType":"uint256"},{"name":"amount1","type":"uint256","internalType":"uint256"},{"name":"data","type":"bytes","internalType":"bytes"}],"outputs":[],"stateMutability":"nonpayable"}],"bytecode":{"object":"0x60806040523480156100115760006000fd5b50610017565b61146a806100266000396000f3fe60806040523480156100115760006000fd5b50600436106100305760003560e01c806310d1e85c1461003657610030565b60006000fd5b6100e76004803603608081101561004d5760006000fd5b81019080803573ffffffffffffffffffffffffffffffffffffffff16906020019092919080359060200190929190803590602001909291908035906020019064010000000081111561009f5760006000fd5b8201836020820111156100b25760006000fd5b803590602001918460018302840111640100000000831117156100d55760006000fd5b909192939090919293905050506100e9565b005b60006100f9610f5363ffffffff16565b9050600081141561018d57606560009054906101000a900473ffffffffffffffffffffffffffffffffffffffff1673ffffffffffffffffffffffffffffffffffffffff1663fff6cae96040518163ffffffff1660e01b8152600401600060405180830381600087803b15801561016f5760006000fd5b505af1158015610184573d600060003e3d6000fd5b50505050610aa3565b600181141561026357606560009054906101000a900473ffffffffffffffffffffffffffffffffffffffff1673ffffffffffffffffffffffffffffffffffffffff1663bc25cf776101e2610faf63ffffffff16565b6040518263ffffffff1660e01b8152600401808273ffffffffffffffffffffffffffffffffffffffff1673ffffffffffffffffffffffffffffffffffffffff168152602001915050600060405180830381600087803b1580156102455760006000fd5b505af115801561025a573d600060003e3d6000fd5b50505050610aa2565b600281141561035e57606560009054906101000a900473ffffffffffffffffffffffffffffffffffffffff1673ffffffffffffffffffffffffffffffffffffffff16636a6278426102b8610faf63ffffffff16565b6040518263ffffffff1660e01b8152600401808273ffffffffffffffffffffffffffffffffffffffff1673ffffffffffffffffffffffffffffffffffffffff168152602001915050602060405180830381600087803b15801561031b5760006000fd5b505af1158015610330573d600060003e3d6000fd5b505050506040513d60208110156103475760006000fd5b810190808051906020019092919050505050610aa1565b600381141561046457606560009054906101000a900473ffffffffffffffffffffffffffffffffffffffff1673ffffffffffffffffffffffffffffffffffffffff166389afcb446103b3610faf63ffffffff16565b6040518263ffffffff1660e01b8152600401808273ffffffffffffffffffffffffffffffffffffffff1673ffffffffffffffffffffffffffffffffffffffff168152602001915050604060405180830381600087803b1580156104165760006000fd5b505af115801561042b573d600060003e3d6000fd5b505050506040513d60408110156104425760006000fd5b8101908080519060200190929190805190602001909291905050505050610aa0565b600481141561057457606560009054906101000a900473ffffffffffffffffffffffffffffffffffffffff1673ffffffffffffffffffffffffffffffffffffffff1663095ea7b36104b9610faf63ffffffff16565b6104c7610f5363ffffffff16565b6040518363ffffffff1660e01b8152600401808373ffffffffffffffffffffffffffffffffffffffff1673ffffffffffffffffffffffffffffffffffffffff16815260200182815260200192505050602060405180830381600087803b1580156105315760006000fd5b505af1158015610546573d600060003e3d6000fd5b505050506040513d602081101561055d5760006000fd5b810190808051906020019092919050505050610a9f565b600581141561068457606560009054906101000a900473ffffffffffffffffffffffffffffffffffffffff1673ffffffffffffffffffffffffffffffffffffffff1663a9059cbb6105c9610faf63ffffffff16565b6105d7610f5363ffffffff16565b6040518363ffffffff1660e01b8152600401808373ffffffffffffffffffffffffffffffffffffffff1673ffffffffffffffffffffffffffffffffffffffff16815260200182815260200192505050602060405180830381600087803b1580156106415760006000fd5b505af1158015610656573d600060003e3d6000fd5b505050506040513d602081101561066d5760006000fd5b810190808051906020019092919050505050610a9e565b60068114156107d557606560009054906101000a900473ffffffffffffffffffffffffffffffffffffffff1673ffffffffffffffffffffffffffffffffffffffff166323b872dd6106d9610faf63ffffffff16565b6106e7610faf63ffffffff16565b6106f5610f5363ffffffff16565b6040518463ffffffff1660e01b8152600401808473ffffffffffffffffffffffffffffffffffffffff1673ffffffffffffffffffffffffffffffffffffffff1681526020018373ffffffffffffffffffffffffffffffffffffffff1673ffffffffffffffffffffffffffffffffffffffff1681526020018281526020019350505050602060405180830381600087803b1580156107925760006000fd5b505af11580156107a7573d600060003e3d6000fd5b505050506040513d60208110156107be5760006000fd5b810190808051906020019092919050505050610a9d565b600781141561090957606560009054906101000a900473ffffffffffffffffffffffffffffffffffffffff1673ffffffffffffffffffffffffffffffffffffffff1663022c0d9f61082a610f5363ffffffff16565b610838610f5363ffffffff16565b610846610faf63ffffffff16565b87876040518663ffffffff1660e01b8152600401808681526020018581526020018473ffffffffffffffffffffffffffffffffffffffff1673ffffffffffffffffffffffffffffffffffffffff168152602001806020018281038252848482818152602001925080828437600081840152601f19601f8201169050808301925050509650505050505050600060405180830381600087803b1580156108eb5760006000fd5b505af1158015610900573d600060003e3d6000fd5b50505050610a9c565b6008811415610a9b57606560009054906101000a900473ffffffffffffffffffffffffffffffffffffffff1673ffffffffffffffffffffffffffffffffffffffff1663d505accf61095e610faf63ffffffff16565b61096c610faf63ffffffff16565b61097a610f5363ffffffff16565b610988610f5363ffffffff16565b61099661102863ffffffff16565b6109a461108e63ffffffff16565b6109b261108e63ffffffff16565b6040518863ffffffff1660e01b8152600401808873ffffffffffffffffffffffffffffffffffffffff1673ffffffffffffffffffffffffffffffffffffffff1681526020018773ffffffffffffffffffffffffffffffffffffffff1673ffffffffffffffffffffffffffffffffffffffff1681526020018681526020018581526020018460ff1660ff16815260200183600019166000191681526020018260001916600019168152602001975050505050505050600060405180830381600087803b158015610a815760006000fd5b505af1158015610a96573d600060003e3d6000fd5b505050505b5b5b5b5b5b5b5b5b60006000606560009054906101000a900473ffffffffffffffffffffffffffffffffffffffff1673ffffffffffffffffffffffffffffffffffffffff16630902f1ac6040518163ffffffff1660e01b815260040160606040518083038186803b158015610b105760006000fd5b505afa158015610b25573d600060003e3d6000fd5b505050506040513d6060811015610b3c5760006000fd5b81019080805190602001909291908051906020019092919080519060200190929190505050506dffffffffffffffffffffffffffff1691506dffffffffffffffffffffffffffff1691506000871115610d67576000610ba28883856110ea63ffffffff16565b9050606560009054906101000a900473ffffffffffffffffffffffffffffffffffffffff1673ffffffffffffffffffffffffffffffffffffffff16630dfe16816040518163ffffffff1660e01b815260040160206040518083038186803b158015610c0d5760006000fd5b505afa158015610c22573d600060003e3d6000fd5b505050506040513d6020811015610c395760006000fd5b810190808051906020019092919050505073ffffffffffffffffffffffffffffffffffffffff166323b872dd8a606560009054906101000a900473ffffffffffffffffffffffffffffffffffffffff16846040518463ffffffff1660e01b8152600401808473ffffffffffffffffffffffffffffffffffffffff1673ffffffffffffffffffffffffffffffffffffffff1681526020018373ffffffffffffffffffffffffffffffffffffffff1673ffffffffffffffffffffffffffffffffffffffff1681526020018281526020019350505050602060405180830381600087803b158015610d275760006000fd5b505af1158015610d3c573d600060003e3d6000fd5b505050506040513d6020811015610d535760006000fd5b810190808051906020019092919050505050505b6000861115610f48576000610d838784846110ea63ffffffff16565b9050606560009054906101000a900473ffffffffffffffffffffffffffffffffffffffff1673ffffffffffffffffffffffffffffffffffffffff1663d21220a76040518163ffffffff1660e01b815260040160206040518083038186803b158015610dee5760006000fd5b505afa158015610e03573d600060003e3d6000fd5b505050506040513d6020811015610e1a5760006000fd5b810190808051906020019092919050505073ffffffffffffffffffffffffffffffffffffffff166323b872dd8a606560009054906101000a900473ffffffffffffffffffffffffffffffffffffffff16846040518463ffffffff1660e01b8152600401808473ffffffffffffffffffffffffffffffffffffffff1673ffffffffffffffffffffffffffffffffffffffff1681526020018373ffffffffffffffffffffffffffffffffffffffff1673ffffffffffffffffffffffffffffffffffffffff1681526020018281526020019350505050602060405180830381600087803b158015610f085760006000fd5b505af1158015610f1d573d600060003e3d6000fd5b505050506040513d6020811015610f345760006000fd5b810190808051906020019092919050505050505b5050505b5050505050565b6000600460005060006000600081819054906101000a900460ff168092919060010191906101000a81548160ff021916908360ff16021790555060ff1660ff168152602001908152602001600020600050549050610fac565b90565b6000600260005060006000600081819054906101000a900460ff168092919060010191906101000a81548160ff021916908360ff16021790555060ff1660ff16815260200190815260200160002060009054906101000a900473ffffffffffffffffffffffffffffffffffffffff169050611025565b90565b6000600560005060006000600081819054906101000a900460ff168092919060010191906101000a81548160ff021916908360ff16021790555060ff1660ff16815260200190815260200160002060009054906101000a900460ff16905061108b565b90565b6000606460005060006000600081819054906101000a900460ff168092919060010191906101000a81548160ff021916908360ff16021790555060ff1660ff1681526020019081526020016000206000505490506110e7565b90565b6000600084111515611147576040517f08c379a000000000000000000000000000000000000000000000000000000000815260040180806020018281038252602c8152602001806113e2602c913960400191505060405180910390fd5b6000831180156111575750600082115b15156111ae576040517f08c379a000000000000000000000000000000000000000000000000000000000815260040180806020018281038252602881526020018061140e6028913960400191505060405180910390fd5b60006111d76103e86111c9878761123190919063ffffffff16565b61123190919063ffffffff16565b905060006112026103e56111f488876112cf90919063ffffffff16565b61123190919063ffffffff16565b90506112236001828481151561121457fe5b0461135890919063ffffffff16565b9250825050505b9392505050565b600060008214806112515750828283850292508281151561124e57fe5b04145b15156112c8576040517f08c379a00000000000000000000000000000000000000000000000000000000081526004018080602001828103825260148152602001807f64732d6d6174682d6d756c2d6f766572666c6f7700000000000000000000000081526020015060200191505060405180910390fd5b5b92915050565b60008282840391508111151515611351576040517f08c379a00000000000000000000000000000000000000000000000000000000081526004018080602001828103825260158152602001807f64732d6d6174682d7375622d756e646572666c6f77000000000000000000000081526020015060200191505060405180910390fd5b5b92915050565b600082828401915081101515156113da576040517f08c379a00000000000000000000000000000000000000000000000000000000081526004018080602001828103825260148152602001807f64732d6d6174682d6164642d6f766572666c6f7700000000000000000000000081526020015060200191505060405180910390fd5b5b9291505056fe556e697377617056324c6962726172793a20494e53554646494349454e545f4f55545055545f414d4f554e54556e697377617056324c6962726172793a20494e53554646494349454e545f4c4951554944495459a265627a7a7231582055ef2e68378597217ab52826ccfa2aa4d0660069831b560d40aea7315bb89d7964736f6c63430005100032","linkReferences":{}},"methodIdentifiers":{"uniswapV2Call(address,uint256,uint256,bytes)":"10d1e85c"},"id":0}